{
  "_format": "hh-sol-artifact-1",
  "contractName": "UserRegistry",
  "sourceName": "contracts/UserRegistry.sol",
  "abi": [
    {
      "inputs": [
        {
          "internalType": "address",
          "name": "_relayerAddr",
          "type": "address"
        }
      ],
      "stateMutability": "nonpayable",
      "type": "constructor"
    },
    {
      "anonymous": false,
      "inputs": [
        {
          "indexed": false,
          "internalType": "uint256",
          "name": "worldCoinId",
          "type": "uint256"
        },
        {
          "indexed": false,
          "internalType": "address",
          "name": "userAddr",
          "type": "address"
        }
      ],
      "name": "UserRegister",
      "type": "event"
    },
    {
      "inputs": [
        {
          "internalType": "address",
          "name": "userAddr",
          "type": "address"
        }
      ],
      "name": "isUserExist",
      "outputs": [
        {
          "internalType": "bool",
          "name": "",
          "type": "bool"
        }
      ],
      "stateMutability": "view",
      "type": "function"
    },
    {
      "inputs": [
        {
          "internalType": "uint256",
          "name": "worldCoinId",
          "type": "uint256"
        },
        {
          "internalType": "address",
          "name": "userAddr",
          "type": "address"
        }
      ],
      "name": "registerUser",
      "outputs": [],
      "stateMutability": "nonpayable",
      "type": "function"
    },
    {
      "inputs": [],
      "name": "relayerAddress",
      "outputs": [
        {
          "internalType": "address",
          "name": "",
          "type": "address"
        }
      ],
      "stateMutability": "view",
      "type": "function"
    },
    {
      "inputs": [
        {
          "internalType": "uint256",
          "name": "worldCoinId",
          "type": "uint256"
        }
      ],
      "name": "userWorldCoinMapping",
      "outputs": [
        {
          "internalType": "address",
          "name": "userAddress",
          "type": "address"
        }
      ],
      "stateMutability": "view",
      "type": "function"
    },
    {
      "inputs": [
        {
          "internalType": "address",
          "name": "userAddress",
          "type": "address"
        }
      ],
      "name": "userWorldCoinReverseMapping",
      "outputs": [
        {
          "internalType": "uint256",
          "name": "worldCoinId",
          "type": "uint256"
        }
      ],
      "stateMutability": "view",
      "type": "function"
    }
  ],
  "bytecode": "0x608060405234801561000f575f80fd5b506040516105b43803806105b4833981810160405281019061003191906100d5565b8060025f6101000a81548173ffffffffffffffffffffffffffffffffffffffff021916908373ffffffffffffffffffffffffffffffffffffffff16021790555050610100565b5f80fd5b5f73ffffffffffffffffffffffffffffffffffffffff82169050919050565b5f6100a48261007b565b9050919050565b6100b48161009a565b81146100be575f80fd5b50565b5f815190506100cf816100ab565b92915050565b5f602082840312156100ea576100e9610077565b5b5f6100f7848285016100c1565b91505092915050565b6104a78061010d5f395ff3fe608060405234801561000f575f80fd5b5060043610610055575f3560e01c80630255fa1e1461005957806318a7cca814610089578063a3b42a17146100a7578063e6de5165146100d7578063e9dd872d146100f3575b5f80fd5b610073600480360381019061006e9190610300565b610123565b6040516100809190610345565b60405180910390f35b61009161016c565b60405161009e919061036d565b60405180910390f35b6100c160048036038101906100bc91906103b9565b610191565b6040516100ce919061036d565b60405180910390f35b6100f160048036038101906100ec91906103e4565b6101c0565b005b61010d60048036038101906101089190610300565b61028d565b60405161011a9190610431565b60405180910390f35b5f8060015f8473ffffffffffffffffffffffffffffffffffffffff1673ffffffffffffffffffffffffffffffffffffffff1681526020019081526020015f205414159050919050565b60025f9054906101000a900473ffffffffffffffffffffffffffffffffffffffff1681565b5f602052805f5260405f205f915054906101000a900473ffffffffffffffffffffffffffffffffffffffff1681565b805f808481526020019081526020015f205f6101000a81548173ffffffffffffffffffffffffffffffffffffffff021916908373ffffffffffffffffffffffffffffffffffffffff1602179055508160015f8373ffffffffffffffffffffffffffffffffffffffff1673ffffffffffffffffffffffffffffffffffffffff1681526020019081526020015f20819055507f68f099f30875ca9116ed1d5e9084cd0a1d1d6c053be87674548c1e40595a58b9828260405161028192919061044a565b60405180910390a15050565b6001602052805f5260405f205f915090505481565b5f80fd5b5f73ffffffffffffffffffffffffffffffffffffffff82169050919050565b5f6102cf826102a6565b9050919050565b6102df816102c5565b81146102e9575f80fd5b50565b5f813590506102fa816102d6565b92915050565b5f60208284031215610315576103146102a2565b5b5f610322848285016102ec565b91505092915050565b5f8115159050919050565b61033f8161032b565b82525050565b5f6020820190506103585f830184610336565b92915050565b610367816102c5565b82525050565b5f6020820190506103805f83018461035e565b92915050565b5f819050919050565b61039881610386565b81146103a2575f80fd5b50565b5f813590506103b38161038f565b92915050565b5f602082840312156103ce576103cd6102a2565b5b5f6103db848285016103a5565b91505092915050565b5f80604083850312156103fa576103f96102a2565b5b5f610407858286016103a5565b9250506020610418858286016102ec565b9150509250929050565b61042b81610386565b82525050565b5f6020820190506104445f830184610422565b92915050565b5f60408201905061045d5f830185610422565b61046a602083018461035e565b939250505056fea26469706673582212200c0639565e721a1779147a2c4858f290788f4cfdc2f27dd796433a9490ca8b5a64736f6c63430008140033",
  "linkReferences": {},
  "deployedLinkReferences": {}
}